{
  "contractName": "degenExchangeRegistry",
  "abi": [
    {
      "inputs": [
        {
          "internalType": "uint64",
          "name": "subscriptionId_",
          "type": "uint64"
        },
        {
          "internalType": "address",
          "name": "vrfCoordinator_",
          "type": "address"
        },
        {
          "internalType": "address",
          "name": "feeWallet_",
          "type": "address"
        },
        {
          "internalType": "contract ISwapRouter",
          "name": "routerAddress_",
          "type": "address"
        },
        {
          "internalType": "address",
          "name": "chainLinkToken_",
          "type": "address"
        },
        {
          "internalType": "address",
          "name": "wethToken_",
          "type": "address"
        },
        {
          "internalType": "bytes",
          "name": "VRFsubscriptionId_",
          "type": "bytes"
        },
        {
          "internalType": "uint256",
          "name": "maxGasPrice_",
          "type": "uint256"
        }
      ],
      "stateMutability": "nonpayable",
      "type": "constructor"
    },
    {
      "inputs": [
        {
          "internalType": "uint256",
          "name": "requestId_",
          "type": "uint256"
        }
      ],
      "name": "FailedToRequestRandomNumbers",
      "type": "error"
    },
    {
      "inputs": [],
      "name": "FiledToApproveWeth",
      "type": "error"
    },
    {
      "inputs": [],
      "name": "FundLinkContractFailed",
      "type": "error"
    },
    {
      "inputs": [
        {
          "internalType": "uint256",
          "name": "maxAcceptedPrice_",
          "type": "uint256"
        },
        {
          "internalType": "uint256",
          "name": "currentGasPrice_",
          "type": "uint256"
        }
      ],
      "name": "GasPriceIsToHigh",
      "type": "error"
    },
    {
      "inputs": [
        {
          "internalType": "bytes4",
          "name": "interfaceId_",
          "type": "bytes4"
        }
      ],
      "name": "InvaliedContractInterfce",
      "type": "error"
    },
    {
      "inputs": [
        {
          "internalType": "address",
          "name": "have",
          "type": "address"
        },
        {
          "internalType": "address",
          "name": "want",
          "type": "address"
        }
      ],
      "name": "OnlyCoordinatorCanFulfill",
      "type": "error"
    },
    {
      "inputs": [],
      "name": "SwapEthForLinkFailed",
      "type": "error"
    },
    {
      "anonymous": false,
      "inputs": [
        {
          "indexed": false,
          "internalType": "address",
          "name": "depositor_",
          "type": "address"
        },
        {
          "indexed": false,
          "internalType": "address",
          "name": "nftContractAddress_",
          "type": "address"
        },
        {
          "indexed": false,
          "internalType": "uint256",
          "name": "tokenId_",
          "type": "uint256"
        }
      ],
      "name": "DepositedNFT",
      "type": "event"
    },
    {
      "anonymous": false,
      "inputs": [
        {
          "indexed": false,
          "internalType": "address",
          "name": "drawer_",
          "type": "address"
        },
        {
          "indexed": false,
          "internalType": "address",
          "name": "nftContractAddress_",
          "type": "address"
        },
        {
          "indexed": false,
          "internalType": "uint256",
          "name": "tokenId_",
          "type": "uint256"
        },
        {
          "indexed": false,
          "internalType": "uint256",
          "name": "drawId_",
          "type": "uint256"
        }
      ],
      "name": "DrawComplete",
      "type": "event"
    },
    {
      "anonymous": false,
      "inputs": [
        {
          "indexed": false,
          "internalType": "address",
          "name": "drawer_",
          "type": "address"
        },
        {
          "indexed": false,
          "internalType": "uint256",
          "name": "drawId_",
          "type": "uint256"
        }
      ],
      "name": "DrawInitiated",
      "type": "event"
    },
    {
      "anonymous": false,
      "inputs": [
        {
          "indexed": false,
          "internalType": "address",
          "name": "depositor_",
          "type": "address"
        },
        {
          "indexed": false,
          "internalType": "address",
          "name": "nftContractAddress_",
          "type": "address"
        },
        {
          "indexed": false,
          "internalType": "uint256",
          "name": "tokenId_",
          "type": "uint256"
        },
        {
          "indexed": false,
          "internalType": "string",
          "name": "reason_",
          "type": "string"
        }
      ],
      "name": "ForceRemoveNFT",
      "type": "event"
    },
    {
      "anonymous": false,
      "inputs": [
        {
          "indexed": false,
          "internalType": "bool",
          "name": "active_",
          "type": "bool"
        }
      ],
      "name": "GasManagerActivationChange",
      "type": "event"
    },
    {
      "anonymous": false,
      "inputs": [
        {
          "indexed": false,
          "internalType": "uint256",
          "name": "newGasPriceInWei_",
          "type": "uint256"
        }
      ],
      "name": "GasPriceAcceptanceChanged",
      "type": "event"
    },
    {
      "anonymous": false,
      "inputs": [
        {
          "indexed": false,
          "internalType": "address",
          "name": "depositor_",
          "type": "address"
        },
        {
          "indexed": false,
          "internalType": "address",
          "name": "nftContractAddress_",
          "type": "address"
        },
        {
          "indexed": false,
          "internalType": "uint256",
          "name": "tokenId_",
          "type": "uint256"
        }
      ],
      "name": "GiftedNFT",
      "type": "event"
    },
    {
      "anonymous": false,
      "inputs": [
        {
          "indexed": true,
          "internalType": "address",
          "name": "previousOwner",
          "type": "address"
        },
        {
          "indexed": true,
          "internalType": "address",
          "name": "newOwner",
          "type": "address"
        }
      ],
      "name": "OwnershipTransferred",
      "type": "event"
    },
    {
      "anonymous": false,
      "inputs": [
        {
          "indexed": false,
          "internalType": "uint256",
          "name": "requestId_",
          "type": "uint256"
        }
      ],
      "name": "RandomNumberReturned",
      "type": "event"
    },
    {
      "anonymous": false,
      "inputs": [
        {
          "indexed": false,
          "internalType": "uint256",
          "name": "amountLink_",
          "type": "uint256"
        },
        {
          "indexed": false,
          "internalType": "uint256",
          "name": "amountETH_",
          "type": "uint256"
        },
        {
          "indexed": false,
          "internalType": "bytes",
          "name": "subscriptionId_",
          "type": "bytes"
        }
      ],
      "name": "SubscriptionFunded",
      "type": "event"
    },
    {
      "anonymous": false,
      "inputs": [
        {
          "indexed": false,
          "internalType": "uint256",
          "name": "ethSent_",
          "type": "uint256"
        },
        {
          "indexed": false,
          "internalType": "uint256",
          "name": "linkReturned_",
          "type": "uint256"
        }
      ],
      "name": "SwapMade",
      "type": "event"
    },
    {
      "anonymous": false,
      "inputs": [
        {
          "indexed": false,
          "internalType": "uint64",
          "name": "VRFsubscriptionId_",
          "type": "uint64"
        },
        {
          "indexed": false,
          "internalType": "bytes32",
          "name": "keyHash_",
          "type": "bytes32"
        }
      ],
      "name": "VRFDataChanged",
      "type": "event"
    },
    {
      "inputs": [],
      "name": "CHAIN_LINK_TOKEN",
      "outputs": [
        {
          "internalType": "address",
          "name": "",
          "type": "address"
        }
      ],
      "stateMutability": "view",
      "type": "function"
    },
    {
      "inputs": [],
      "name": "SWAP_ROUTER",
      "outputs": [
        {
          "internalType": "contract ISwapRouter",
          "name": "",
          "type": "address"
        }
      ],
      "stateMutability": "view",
      "type": "function"
    },
    {
      "inputs": [],
      "name": "VRF_COORDINATOR",
      "outputs": [
        {
          "internalType": "address",
          "name": "",
          "type": "address"
        }
      ],
      "stateMutability": "view",
      "type": "function"
    },
    {
      "inputs": [],
      "name": "WETH_TOKEN",
      "outputs": [
        {
          "internalType": "address",
          "name": "",
          "type": "address"
        }
      ],
      "stateMutability": "view",
      "type": "function"
    },
    {
      "inputs": [],
      "name": "checkPausedStatus",
      "outputs": [
        {
          "internalType": "bool",
          "name": "",
          "type": "bool"
        }
      ],
      "stateMutability": "view",
      "type": "function"
    },
    {
      "inputs": [
        {
          "internalType": "address",
          "name": "addressForNFTContract_",
          "type": "address"
        },
        {
          "internalType": "uint256",
          "name": "tokenId_",
          "type": "uint256"
        },
        {
          "internalType": "bytes4",
          "name": "interfaceId_",
          "type": "bytes4"
        }
      ],
      "name": "enterNFTDraw",
      "outputs": [],
      "stateMutability": "payable",
      "type": "function"
    },
    {
      "inputs": [],
      "name": "exchangeAllEthAndFund",
      "outputs": [],
      "stateMutability": "nonpayable",
      "type": "function"
    },
    {
      "inputs": [],
      "name": "exchangeAllWEthAndFund",
      "outputs": [],
      "stateMutability": "nonpayable",
      "type": "function"
    },
    {
      "inputs": [
        {
          "internalType": "uint256",
          "name": "amount_",
          "type": "uint256"
        }
      ],
      "name": "exchangeEthAmountAndFund",
      "outputs": [],
      "stateMutability": "nonpayable",
      "type": "function"
    },
    {
      "inputs": [
        {
          "internalType": "uint256",
          "name": "linkAmount_",
          "type": "uint256"
        }
      ],
      "name": "fundWithLink",
      "outputs": [],
      "stateMutability": "nonpayable",
      "type": "function"
    },
    {
      "inputs": [],
      "name": "gasManagerIsActive",
      "outputs": [
        {
          "internalType": "bool",
          "name": "active_",
          "type": "bool"
        }
      ],
      "stateMutability": "view",
      "type": "function"
    },
    {
      "inputs": [
        {
          "internalType": "address",
          "name": "playersAddress_",
          "type": "address"
        }
      ],
      "name": "getAddressRemainingPlays",
      "outputs": [
        {
          "internalType": "uint256",
          "name": "",
          "type": "uint256"
        }
      ],
      "stateMutability": "view",
      "type": "function"
    },
    {
      "inputs": [],
      "name": "getAllTokensInDraw",
      "outputs": [
        {
          "components": [
            {
              "internalType": "address",
              "name": "contractOfToken",
              "type": "address"
            },
            {
              "internalType": "address",
              "name": "ownerAddress",
              "type": "address"
            },
            {
              "internalType": "uint256",
              "name": "tokenId",
              "type": "uint256"
            },
            {
              "internalType": "bytes4",
              "name": "interfaceId",
              "type": "bytes4"
            },
            {
              "internalType": "bool",
              "name": "gifted",
              "type": "bool"
            },
            {
              "internalType": "address",
              "name": "gifter",
              "type": "address"
            }
          ],
          "internalType": "struct IXchange.TokenData[]",
          "name": "",
          "type": "tuple[]"
        }
      ],
      "stateMutability": "view",
      "type": "function"
    },
    {
      "inputs": [],
      "name": "getAvalabuleNFTsInDraw",
      "outputs": [
        {
          "internalType": "uint256",
          "name": "",
          "type": "uint256"
        }
      ],
      "stateMutability": "view",
      "type": "function"
    },
    {
      "inputs": [],
      "name": "getCallbackGasLimit",
      "outputs": [
        {
          "internalType": "uint256",
          "name": "",
          "type": "uint256"
        }
      ],
      "stateMutability": "view",
      "type": "function"
    },
    {
      "inputs": [],
      "name": "getDrawFee",
      "outputs": [
        {
          "internalType": "uint256",
          "name": "",
          "type": "uint256"
        }
      ],
      "stateMutability": "view",
      "type": "function"
    },
    {
      "inputs": [],
      "name": "getGasManagerMaxGas",
      "outputs": [
        {
          "internalType": "uint256",
          "name": "maxGasInWei_",
          "type": "uint256"
        }
      ],
      "stateMutability": "view",
      "type": "function"
    },
    {
      "inputs": [],
      "name": "getMaxEntrysPerWallet",
      "outputs": [
        {
          "internalType": "uint256",
          "name": "",
          "type": "uint256"
        }
      ],
      "stateMutability": "view",
      "type": "function"
    },
    {
      "inputs": [],
      "name": "getNFTsDepositedCount",
      "outputs": [
        {
          "internalType": "uint256",
          "name": "",
          "type": "uint256"
        }
      ],
      "stateMutability": "view",
      "type": "function"
    },
    {
      "inputs": [],
      "name": "getPendingDrawCount",
      "outputs": [
        {
          "internalType": "uint256",
          "name": "",
          "type": "uint256"
        }
      ],
      "stateMutability": "view",
      "type": "function"
    },
    {
      "inputs": [],
      "name": "getSplitAmount",
      "outputs": [
        {
          "internalType": "uint8",
          "name": "",
          "type": "uint8"
        }
      ],
      "stateMutability": "view",
      "type": "function"
    },
    {
      "inputs": [],
      "name": "getTotalDrawsHappened",
      "outputs": [
        {
          "internalType": "uint256",
          "name": "",
          "type": "uint256"
        }
      ],
      "stateMutability": "view",
      "type": "function"
    },
    {
      "inputs": [],
      "name": "getVRFInfo",
      "outputs": [
        {
          "internalType": "uint64",
          "name": "",
          "type": "uint64"
        },
        {
          "internalType": "bytes32",
          "name": "",
          "type": "bytes32"
        },
        {
          "internalType": "uint32",
          "name": "",
          "type": "uint32"
        }
      ],
      "stateMutability": "view",
      "type": "function"
    },
    {
      "inputs": [
        {
          "internalType": "address",
          "name": "operator_",
          "type": "address"
        },
        {
          "internalType": "address",
          "name": "from_",
          "type": "address"
        },
        {
          "internalType": "uint256",
          "name": "id_",
          "type": "uint256"
        },
        {
          "internalType": "uint256",
          "name": "value_",
          "type": "uint256"
        },
        {
          "internalType": "bytes",
          "name": "data_",
          "type": "bytes"
        }
      ],
      "name": "onERC1155Received",
      "outputs": [
        {
          "internalType": "bytes4",
          "name": "",
          "type": "bytes4"
        }
      ],
      "stateMutability": "pure",
      "type": "function"
    },
    {
      "inputs": [
        {
          "internalType": "address",
          "name": "operator_",
          "type": "address"
        },
        {
          "internalType": "address",
          "name": "from_",
          "type": "address"
        },
        {
          "internalType": "uint256",
          "name": "tokenId_",
          "type": "uint256"
        },
        {
          "internalType": "bytes",
          "name": "data_",
          "type": "bytes"
        }
      ],
      "name": "onERC721Received",
      "outputs": [
        {
          "internalType": "bytes4",
          "name": "",
          "type": "bytes4"
        }
      ],
      "stateMutability": "pure",
      "type": "function"
    },
    {
      "inputs": [],
      "name": "owner",
      "outputs": [
        {
          "internalType": "address",
          "name": "",
          "type": "address"
        }
      ],
      "stateMutability": "view",
      "type": "function"
    },
    {
      "inputs": [
        {
          "internalType": "uint256",
          "name": "requestId",
          "type": "uint256"
        },
        {
          "internalType": "uint256[]",
          "name": "randomWords",
          "type": "uint256[]"
        }
      ],
      "name": "rawFulfillRandomWords",
      "outputs": [],
      "stateMutability": "nonpayable",
      "type": "function"
    },
    {
      "inputs": [
        {
          "internalType": "address payable",
          "name": "to_",
          "type": "address"
        },
        {
          "internalType": "uint256",
          "name": "amount_",
          "type": "uint256"
        }
      ],
      "name": "removeETH",
      "outputs": [],
      "stateMutability": "nonpayable",
      "type": "function"
    },
    {
      "inputs": [
        {
          "internalType": "uint256",
          "name": "NFTIndex_",
          "type": "uint256"
        },
        {
          "internalType": "string",
          "name": "reason_",
          "type": "string"
        }
      ],
      "name": "removeNFTEntryFromDraw",
      "outputs": [],
      "stateMutability": "nonpayable",
      "type": "function"
    },
    {
      "inputs": [],
      "name": "renounceOwnership",
      "outputs": [],
      "stateMutability": "nonpayable",
      "type": "function"
    },
    {
      "inputs": [
        {
          "internalType": "uint32",
          "name": "newGaslimit_",
          "type": "uint32"
        }
      ],
      "name": "setCallbackGasLimit",
      "outputs": [],
      "stateMutability": "nonpayable",
      "type": "function"
    },
    {
      "inputs": [
        {
          "internalType": "uint256",
          "name": "amount_",
          "type": "uint256"
        }
      ],
      "name": "setDrawFee",
      "outputs": [],
      "stateMutability": "nonpayable",
      "type": "function"
    },
    {
      "inputs": [],
      "name": "setDrawPaused",
      "outputs": [],
      "stateMutability": "nonpayable",
      "type": "function"
    },
    {
      "inputs": [],
      "name": "setGasManagerActive",
      "outputs": [],
      "stateMutability": "nonpayable",
      "type": "function"
    },
    {
      "inputs": [
        {
          "internalType": "uint256",
          "name": "maxGasInWei_",
          "type": "uint256"
        }
      ],
      "name": "setGasManagerMaxCost",
      "outputs": [],
      "stateMutability": "nonpayable",
      "type": "function"
    },
    {
      "inputs": [
        {
          "internalType": "uint64",
          "name": "subscriptionId_",
          "type": "uint64"
        },
        {
          "internalType": "bytes32",
          "name": "keyHash_",
          "type": "bytes32"
        }
      ],
      "name": "setNewVRFInfo",
      "outputs": [],
      "stateMutability": "nonpayable",
      "type": "function"
    },
    {
      "inputs": [
        {
          "internalType": "uint8",
          "name": "newSplit_",
          "type": "uint8"
        }
      ],
      "name": "setSplitAmount",
      "outputs": [],
      "stateMutability": "nonpayable",
      "type": "function"
    },
    {
      "inputs": [
        {
          "internalType": "address",
          "name": "addressForNFTContract_",
          "type": "address"
        },
        {
          "internalType": "uint256",
          "name": "tokenId_",
          "type": "uint256"
        },
        {
          "internalType": "bytes4",
          "name": "interfaceId_",
          "type": "bytes4"
        }
      ],
      "name": "submitNFT",
      "outputs": [],
      "stateMutability": "nonpayable",
      "type": "function"
    },
    {
      "inputs": [
        {
          "internalType": "bytes4",
          "name": "interfaceId_",
          "type": "bytes4"
        }
      ],
      "name": "supportsInterface",
      "outputs": [
        {
          "internalType": "bool",
          "name": "",
          "type": "bool"
        }
      ],
      "stateMutability": "view",
      "type": "function"
    },
    {
      "inputs": [
        {
          "internalType": "address",
          "name": "newOwner",
          "type": "address"
        }
      ],
      "name": "transferOwnership",
      "outputs": [],
      "stateMutability": "nonpayable",
      "type": "function"
    },
    {
      "inputs": [],
      "name": "triggerDraw",
      "outputs": [],
      "stateMutability": "nonpayable",
      "type": "function"
    },
    {
      "stateMutability": "payable",
      "type": "receive"
    }
  ],
  "bytecode": "0x60a06040526002600455600060058190556006819055600160075566071afd498d00006008556009805460ff191690557fd89b2bf150e3b9e13446986e571fb9cab24b13cea0a43ea20a6049a85cc807cc600a55600b80546001600160501b03191666010003002625a0179055600c553480156200007c57600080fd5b5060405162001ff738038062001ff78339810160408190526200009f9162000299565b6001600160a01b038216608052620000b7336200022c565b600380546001600160a01b03199081166001600160a01b0393841617909155600980546001805495851695841686178155610100600160e81b03199091166901000000000000000000909502610100600160481b031916949094176101006001600160401b03969096169590950294909417909355604080516080810182526000808252602082018181529282018181526060830182815260028054978801815590925291517f405787fa12a823e0f2b7631cc41b3ba8828b3321ca811111fa75cd3aa3bb5ace60049096029586018054881691861691909117905591517f405787fa12a823e0f2b7631cc41b3ba8828b3321ca811111fa75cd3aa3bb5acf85018054909616931692909217909355517f405787fa12a823e0f2b7631cc41b3ba8828b3321ca811111fa75cd3aa3bb5ad082015590517f405787fa12a823e0f2b7631cc41b3ba8828b3321ca811111fa75cd3aa3bb5ad1909101805463ffffffff191660e09290921c919091179055620002f0565b600080546001600160a01b038381166001600160a01b0319831681178455604051919092169283917f8be0079c531659141344cd1fd0a4f28419497f9722a3daafe3b4186f6b6457e09190a35050565b80516001600160a01b03811681146200029457600080fd5b919050565b600080600060608486031215620002af57600080fd5b83516001600160401b0381168114620002c757600080fd5b9250620002d7602085016200027c565b9150620002e7604085016200027c565b90509250925092565b608051611cee6200030960003960005050611cee6000f3fe60806040526004361061019c5760003560e01c8063715018a6116100ec578063c75da8d51161008a578063f23a6e6111610064578063f23a6e611461045b578063f2fde38b146104a1578063f84160df146104c1578063f986ba84146104e357600080fd5b8063c75da8d514610400578063d0bcb5b314610420578063de8be8e71461044057600080fd5b8063a1c13158116100c6578063a1c131581461037d578063a4eb718c14610395578063a66d6603146103b5578063a9a0fb40146103eb57600080fd5b8063715018a61461032b5780638942ddc4146103405780638da5cb5b1461035557600080fd5b806352a93a10116101595780635e38d73d116101335780635e38d73d146102ce5780635f189322146102ee5780635fcd310614610301578063680072d01461031657600080fd5b806352a93a101461028457806355cf8307146102a4578063596adc24146102b957600080fd5b806301ffc9a7146101a1578063150b7a02146101d65780631fe543e31461021b578063217b6da61461023d57806327cd89741461024557806340463dc914610264575b600080fd5b3480156101ad57600080fd5b506101c16101bc3660046116a8565b6104f8565b60405190151581526020015b60405180910390f35b3480156101e257600080fd5b506102026101f136600461172a565b630a85bd0160e11b95945050505050565b6040516001600160e01b031990911681526020016101cd565b34801561022757600080fd5b5061023b6102363660046117e0565b61054a565b005b61023b6105aa565b34801561025157600080fd5b506006545b6040519081526020016101cd565b34801561027057600080fd5b5061023b61027f366004611892565b6105e6565b34801561029057600080fd5b5061023b61029f3660046118ab565b6105f3565b3480156102b057600080fd5b50610256610735565b3480156102c557600080fd5b50600554610256565b3480156102da57600080fd5b5061023b6102e9366004611892565b610752565b61023b6102fc36600461194a565b6107d2565b34801561030d57600080fd5b5061023b610a25565b34801561032257600080fd5b50600854610256565b34801561033757600080fd5b5061023b610b12565b34801561034c57600080fd5b5061023b610b24565b34801561036157600080fd5b506000546040516001600160a01b0390911681526020016101cd565b34801561038957600080fd5b5060095460ff166101c1565b3480156103a157600080fd5b5061023b6103b0366004611986565b610b51565b3480156103c157600080fd5b506102566103d03660046119ac565b6001600160a01b03166000908152600f602052604090205490565b3480156103f757600080fd5b50600754610256565b34801561040c57600080fd5b5061023b61041b366004611892565b610b75565b34801561042c57600080fd5b5061023b61043b36600461194a565b610b82565b34801561044c57600080fd5b50600b5463ffffffff16610256565b34801561046757600080fd5b506102026104763660046119c7565b7ff23a6e612e1ff4830e658fe43f4e3cb4a5f8170bd5d9e69fb5d7a7fa9e4fdf979695505050505050565b3480156104ad57600080fd5b5061023b6104bc3660046119ac565b610d17565b3480156104cd57600080fd5b506104d6610d8d565b6040516101cd9190611a3f565b3480156104ef57600080fd5b50600c54610256565b60006001600160e01b03198216636cdb3d1360e11b148061052957506001600160e01b031982166380ac58cd60e01b145b8061054457506301ffc9a760e01b6001600160e01b03198316145b92915050565b600954600160481b90046001600160a01b0316331461059c5760095460405163073e64fd60e21b8152336004820152600160481b9091046001600160a01b031660248201526044015b60405180910390fd5b6105a68282610e29565b5050565b6003546040516001600160a01b03909116904780156108fc02916000818181858888f193505050501580156105e3573d6000803e3d6000fd5b50565b6105ee610f13565b600455565b6105fb610f13565b60006002838154811061061057610610611ab9565b60009182526020918290206040805160808101825260049390930290910180546001600160a01b0390811684526001820154169383018490526002810154918301919091526003015460e01b6001600160e01b031916606082015291508061068057506003546001600160a01b03165b61069a826000015183604001518460600151600085610f6d565b6106a384611006565b6020808301516001600160a01b03166000908152600f909152604081208054916106cc83611ae5565b9091555050600580549060006106e183611ae5565b91905055507fd0d2bafdc35f468f55f30516dba9cdf5555793e5a4873ff18251a5c176c9c904826020015183600001518460400151866040516107279493929190611b49565b60405180910390a150505050565b6000600c5461074360055490565b61074d9190611b86565b905090565b61075a610f13565b60008181526011602052604090205460ff16156107b95760405162461bcd60e51b815260206004820152601e60248201527f447261772068617320616c72656479206265656e20636f6d706c6574656400006044820152606401610593565b6000818152601060205260409020546105e39082611129565b60095460ff16156107f55760405162461bcd60e51b815260040161059390611b9d565b60085434146108465760405162461bcd60e51b815260206004820152601f60248201527f4e65656420746f20696e636c75646520746865206465706f73697420666565006044820152606401610593565b600754336000908152600f6020526040902054106108a65760405162461bcd60e51b815260206004820152601d60248201527f4d617820456e74727973205065722057616c6c657420526561636865640000006044820152606401610593565b6108b4838383600133610f6d565b604080516080810182526001600160a01b0385811682523360208084018281526001600160e01b031987166060860190815285870189815260028054600180820183556000928352985160049091027f405787fa12a823e0f2b7631cc41b3ba8828b3321ca811111fa75cd3aa3bb5ace81018054928a166001600160a01b031993841617905594517f405787fa12a823e0f2b7631cc41b3ba8828b3321ca811111fa75cd3aa3bb5acf8601805491909916911617909655517f405787fa12a823e0f2b7631cc41b3ba8828b3321ca811111fa75cd3aa3bb5ad0830155517f405787fa12a823e0f2b7631cc41b3ba8828b3321ca811111fa75cd3aa3bb5ad1909101805460e09290921c63ffffffff19909216919091179055818352600f9052908390208054830190556005805490920190915590517f24d55d158e9158d4e7ea078fe9f4fb44769ff2ebd7b64818d1251612edcc522391610a189186908690611be3565b60405180910390a1505050565b336000908152600f6020526040902054610a815760405162461bcd60e51b815260206004820152601f60248201527f4e65656420746f206465706f73697420746f20686176652061206472617721006044820152606401610593565b600454610a8c610735565b11610ae55760405162461bcd60e51b8152602060048201526024808201527f4e6f7420456e6f756768204e46547320696e20746865207661756c7420746f206044820152636472617760e01b6064820152608401610593565b60095460ff1615610b085760405162461bcd60e51b815260040161059390611b9d565b610b10611307565b565b610b1a610f13565b610b1060006114c6565b610b2c610f13565b60095460ff16610b45576009805460ff19166001179055565b6009805460ff19169055565b610b59610f13565b600b805463ffffffff191663ffffffff92909216919091179055565b610b7d610f13565b600855565b60095460ff1615610ba55760405162461bcd60e51b815260040161059390611b9d565b610bb3838383600133610f6d565b604080516080810182526000602082018181526001600160a01b0387811684526001600160e01b031986166060850190815294840187815260028054600181018255908552855160049091027f405787fa12a823e0f2b7631cc41b3ba8828b3321ca811111fa75cd3aa3bb5ace810180549285166001600160a01b031993841617905593517f405787fa12a823e0f2b7631cc41b3ba8828b3321ca811111fa75cd3aa3bb5acf8501805491909416911617909155517f405787fa12a823e0f2b7631cc41b3ba8828b3321ca811111fa75cd3aa3bb5ad082015592517f405787fa12a823e0f2b7631cc41b3ba8828b3321ca811111fa75cd3aa3bb5ad1909301805460e09490941c63ffffffff1990941693909317909255600580549192610cd983611c07565b91905055507fe120976a4e9259bd4b1a9ab41025d1e66e0269f611a52e3a28ecfdaab3ea875e610d063390565b858560405161072793929190611be3565b610d1f610f13565b6001600160a01b038116610d845760405162461bcd60e51b815260206004820152602660248201527f4f776e61626c653a206e6577206f776e657220697320746865207a65726f206160448201526564647265737360d01b6064820152608401610593565b6105e3816114c6565b60606002805480602002602001604051908101604052809291908181526020016000905b82821015610e20576000848152602090819020604080516080810182526004860290920180546001600160a01b039081168452600180830154909116848601526002820154928401929092526003015460e01b6001600160e01b03191660608301529083529092019101610db1565b50505050905090565b600081600081518110610e3e57610e3e611ab9565b6020908102919091018101516000858152600e835260408082205482526010845290819020829055518581529092507f88f8b2c57be558e1a5d794ecc67606ac7480a3e5e27eb8e69fd79429f9b1c5ac910160405180910390a16000838152600e60209081526040808320548352601190915290205460ff1615610f045760405162461bcd60e51b815260206004820152601e60248201527f447261772068617320616c72656479206265656e20636f6d706c6574656400006044820152606401610593565b610f0e8184611129565b505050565b6000546001600160a01b03163314610b105760405162461bcd60e51b815260206004820181905260248201527f4f776e61626c653a2063616c6c6572206973206e6f7420746865206f776e65726044820152606401610593565b6001600160e01b031983166380ac58cd60e01b1415610fa6578115610f9b57610f968585611516565b610fff565b610f9685858361157c565b6001600160e01b03198316636cdb3d1360e11b1415610fda578115610fcf57610f9685856115e3565b610f9685858361161b565b60405163c6d2d68160e01b81526001600160e01b031984166004820152602401610593565b5050505050565b60025481106110125750565b805b6002816001018154811061102a5761102a611ab9565b90600052602060002090600402016002828154811061104b5761104b611ab9565b60009182526020909120825460049092020180546001600160a01b03199081166001600160a01b03938416178255600180850154818401805490931694169390931790556002808401548183015560039384015493909101805463ffffffff90941663ffffffff199094169390931790925590549101906000190181106110145760028054806110dd576110dd611c22565b60008281526020812060046000199093019283020180546001600160a01b0319908116825560018201805490911690556002810191909155600301805463ffffffff1916905590555050565b6000611133610735565b61113d9084611c38565b9050600181101561114c576001015b6000828152600d6020526040902054600280546001600160a01b03909216918390811061117b5761117b611ab9565b60009182526020909120600160049092020101546001600160a01b031614156111b45760028110156111af5760010161114c565b61114c565b6000600282815481106111c9576111c9611ab9565b600091825260208083206040805160808101825260049490940290910180546001600160a01b039081168086526001830154821686860152600283015486850181905260039093015460e01b6001600160e01b031916606087018190528a8852600d909552928620549496506112459592949193929116610f6d565b61124e82611006565b6005805490600061125e83611ae5565b9091555050600c805490600061127383611ae5565b90915550506000838152600e602081815260408084208054855260118352818520805460ff19166001179055878552600d83529381902054855186830151948452945482516001600160a01b039283168152919095169281019290925281019190915260608101919091527e9ceabaf8fad402446046ae0fa4d40161af681ddcb5c5d4d60995dc1169951d90608001610727565b600154600a54600954600b546040516305d3b1d360e41b8152600481019390935261010090910467ffffffffffffffff166024830152640100000000810461ffff16604483015263ffffffff808216606484015266010000000000009091041660848201526000916001600160a01b031690635d3b1d309060a4016020604051808303816000875af11580156113a1573d6000803e3d6000fd5b505050506040513d601f19601f820116820180604052508101906113c59190611c5a565b905080156114aa5760068054339160006113de83611c07565b90915550506000828152600d6020526040812080546001600160a01b0319166001600160a01b038416179055600c80549161141883611c07565b90915550506006546000838152600e6020908152604080832093909355600d8152828220546001600160a01b03168252600f905290812080549161145b83611ae5565b9091555050600654604080516001600160a01b038416815260208101929092527f5944e9edb96badbedc228d50e87e0ff6a5f5b910ddf17d25b465314cb2529c11910160405180910390a15050565b6040516392c82a2f60e01b815260048101829052602401610593565b600080546001600160a01b038381166001600160a01b0319831681178455604051919092169283917f8be0079c531659141344cd1fd0a4f28419497f9722a3daafe3b4186f6b6457e09190a35050565b6040516323b872dd60e01b81526001600160a01b038316906323b872dd9061154690339030908690600401611be3565b600060405180830381600087803b15801561156057600080fd5b505af1158015611574573d6000803e3d6000fd5b505050505050565b6040516323b872dd60e01b81526001600160a01b038416906323b872dd906115ac90309085908790600401611be3565b600060405180830381600087803b1580156115c657600080fd5b505af11580156115da573d6000803e3d6000fd5b50505050505050565b604051637921219560e11b81526060906001600160a01b0384169063f242432a906115ac903390309087906001908890600401611c73565b604051637921219560e11b81526060906001600160a01b0385169063f242432a90611653903090869088906001908890600401611c73565b600060405180830381600087803b15801561166d57600080fd5b505af1158015611681573d6000803e3d6000fd5b5050505050505050565b80356001600160e01b0319811681146116a357600080fd5b919050565b6000602082840312156116ba57600080fd5b6116c38261168b565b9392505050565b80356001600160a01b03811681146116a357600080fd5b60008083601f8401126116f357600080fd5b50813567ffffffffffffffff81111561170b57600080fd5b60208301915083602082850101111561172357600080fd5b9250929050565b60008060008060006080868803121561174257600080fd5b61174b866116ca565b9450611759602087016116ca565b935060408601359250606086013567ffffffffffffffff81111561177c57600080fd5b611788888289016116e1565b969995985093965092949392505050565b634e487b7160e01b600052604160045260246000fd5b604051601f8201601f1916810167ffffffffffffffff811182821017156117d8576117d8611799565b604052919050565b600080604083850312156117f357600080fd5b8235915060208084013567ffffffffffffffff8082111561181357600080fd5b818601915086601f83011261182757600080fd5b81358181111561183957611839611799565b8060051b915061184a8483016117af565b818152918301840191848101908984111561186457600080fd5b938501935b8385101561188257843582529385019390850190611869565b8096505050505050509250929050565b6000602082840312156118a457600080fd5b5035919050565b600080604083850312156118be57600080fd5b8235915060208084013567ffffffffffffffff808211156118de57600080fd5b818601915086601f8301126118f257600080fd5b81358181111561190457611904611799565b611916601f8201601f191685016117af565b9150808252878482850101111561192c57600080fd5b80848401858401376000848284010152508093505050509250929050565b60008060006060848603121561195f57600080fd5b611968846116ca565b92506020840135915061197d6040850161168b565b90509250925092565b60006020828403121561199857600080fd5b813563ffffffff811681146116c357600080fd5b6000602082840312156119be57600080fd5b6116c3826116ca565b60008060008060008060a087890312156119e057600080fd5b6119e9876116ca565b95506119f7602088016116ca565b94506040870135935060608701359250608087013567ffffffffffffffff811115611a2157600080fd5b611a2d89828a016116e1565b979a9699509497509295939492505050565b602080825282518282018190526000919060409081850190868401855b82811015611aac57815180516001600160a01b03908116865287820151168786015285810151868601526060908101516001600160e01b0319169085015260809093019290850190600101611a5c565b5091979650505050505050565b634e487b7160e01b600052603260045260246000fd5b634e487b7160e01b600052601160045260246000fd5b600081611af457611af4611acf565b506000190190565b6000815180845260005b81811015611b2257602081850181015186830182015201611b06565b81811115611b34576000602083870101525b50601f01601f19169290920160200192915050565b6001600160a01b0385811682528416602082015260408101839052608060608201819052600090611b7c90830184611afc565b9695505050505050565b600082821015611b9857611b98611acf565b500390565b60208082526026908201527f536f7272792074686520447261772069732050617573656420617420746865206040820152651b5bdb595b9d60d21b606082015260800190565b6001600160a01b039384168152919092166020820152604081019190915260600190565b6000600019821415611c1b57611c1b611acf565b5060010190565b634e487b7160e01b600052603160045260246000fd5b600082611c5557634e487b7160e01b600052601260045260246000fd5b500690565b600060208284031215611c6c57600080fd5b5051919050565b6001600160a01b03868116825285166020820152604081018490526060810183905260a060808201819052600090611cad90830184611afc565b97965050505050505056fea2646970667358221220e6442264b25f2cf443b369565ac68f7e2fc273c03583d1f1fe6059af1d5840a364736f6c634300080b0033",
  "immutableReferences": {},
  "source": "// SPDX-License-Identifier: MIT\npragma solidity >=0.4.22 <0.9.0;\n//  Libarys\nimport \"@openzeppelin/contracts/utils/Address.sol\";\nimport \"@openzeppelin/contracts/utils/Strings.sol\";\n//  Security\nimport \"@openzeppelin/contracts/access/Ownable.sol\";\n//  ChainLink\nimport \"@chainlink/contracts/src/v0.8/interfaces/VRFCoordinatorV2Interface.sol\";\nimport \"@chainlink/contracts/src/v0.8/VRFConsumerBaseV2.sol\";\n//  Interfaces\nimport \"./interfaces/IdegenExchangeData.sol\";\nimport \"@openzeppelin/contracts/token/ERC721/IERC721.sol\";\nimport \"@openzeppelin/contracts/token/ERC1155/IERC1155.sol\";\n//  Interface Receiver's\nimport \"@openzeppelin/contracts/utils/introspection/ERC165.sol\";\nimport \"@openzeppelin/contracts/token/ERC1155/IERC1155Receiver.sol\";\nimport \"@openzeppelin/contracts/token/ERC721/IERC721Receiver.sol\";\n\n/**\n*   @dev    -   IERC721 interfaceId - 0x80ac58cd\n*   @dev    -   IERC1155 interfaceId - \n*\n */\n\ncontract degenExchangeRegistry is VRFConsumerBaseV2, ERC165, IdegenExchangeData, Ownable {\n    VRFCoordinatorV2Interface COORDINATOR;\n\n    using Address for address;\n    using Strings for uint256;\n\n    TokenData[] private  _tokensInDraw;\n    \n    address private FEE_PAYABLE_ADDRESS;\n    uint256 private MINIMAL_TOKENS_FOR_DRAW = 2;    //  +1 for actual number \n    uint256 private DEPOSIT_COUNT = 0;\n    uint256 private DRAW_COUNT = 0;\n    uint256 private MAX_CONCURRENT_ENTRYS_PER_WALLET = 1;   \n    uint256 private DEPOSIT_FEE = 0.002 ether;\n\n    bool private _paused = false;\n\n\n     // The RNG subscription ID.\n     uint64 private _subscriptionId ;\n     // Rinkeby coordinator\n     address private _vrfCoordinator;\n     // The gas lane to use, which specifies the maximum gas price to bump to.\n     bytes32 private _keyHash = 0xd89b2bf150e3b9e13446986e571fb9cab24b13cea0a43ea20a6049a85cc807cc;\n     //  Callback gas cost\n     uint32 private _callbackGaslimit = 2500000;\n     //  How many confirmations to wait for, min 3\n     uint16 _minimumRequestConfirmations = 3;\n     //  How many sets of random numbers\n     uint32 _amountOfNumbersToRequest = 1;\n     //  Draws in cue\n     uint256 private _DrawsInLine = 0;\n     //  Mapping of requestIds to Draw trigger address\n     mapping(uint256 => address) internal _requestIdMapping;\n     //  Mapping of requestIds to DrawId\n     mapping(uint256 => uint256) internal _drawTriggers;\n     //  Mapping of amount of draws to spend to wallet address\n     mapping(address => uint256) internal userDepositCount_;\n\n     mapping(uint256 => uint256) private _DrawIdToVRN;\n\n     mapping(uint256 => bool) private _completeDraws;\n\n    constructor(uint64 subscriptionId_, address vrfCoordinator_, address feeWallet_)VRFConsumerBaseV2(vrfCoordinator_){\n        FEE_PAYABLE_ADDRESS = feeWallet_;\n        _vrfCoordinator = vrfCoordinator_;\n        COORDINATOR = VRFCoordinatorV2Interface(vrfCoordinator_);\n        _subscriptionId = subscriptionId_;\n\n        //Add an Empty entry to the array to full index 0\n        TokenData memory insertZero;\n        insertZero.contractOfToken = 0x0000000000000000000000000000000000000000;\n        insertZero.ownerAddress = 0x0000000000000000000000000000000000000000;\n        insertZero.tokenId = 0;\n        \n        _tokensInDraw.push(insertZero);\n    }\n\n    modifier addressHasDraws(){\n        require(userDepositCount_[_msgSender()] > 0, \"Need to deposit to have a draw!\");\n        _;\n    }\n\n    modifier activeNFTCount(){\n        require(getAvalabuleNFTsInDraw() > MINIMAL_TOKENS_FOR_DRAW, \"Not Enough NFTs in the vault to draw\");\n        _;\n    }\n\n    modifier isPaused(){\n        require(!_paused, \"Sorry the Draw is Paused at the moment\");\n        _;\n    }\n    /**\n    *           Deposit functions\n    */\n    function EnterNFTDraw(address addressForNFTContract_, uint256 tokenId_, bytes4 interfaceId_) public payable isPaused{\n        require(msg.value == DEPOSIT_FEE, \"Need to include the deposit fee\");\n        require(userDepositCount_[_msgSender()]< MAX_CONCURRENT_ENTRYS_PER_WALLET, \"Max Entrys Per Wallet Reached\");\n\n        _switchTransferInterface(addressForNFTContract_, tokenId_, interfaceId_, 1, _msgSender());\n\n        unchecked {\n            TokenData memory newEntry;\n            newEntry.contractOfToken = addressForNFTContract_;\n            newEntry.ownerAddress = _msgSender();\n            newEntry.interfaceId = interfaceId_;\n            newEntry.tokenId = tokenId_;\n\n            _tokensInDraw.push(newEntry);\n            userDepositCount_[_msgSender()] ++;\n            DEPOSIT_COUNT ++;\n        }\n\n        emit DepositedNFT(_msgSender(), addressForNFTContract_, tokenId_);\n    }\n\n    /**\n    *       @notice -   THIS FUNCTION IS ONE WAY. YOU DO NOT GET A DRAW FOR SUBMITTING\n    *                   Used for entering an NFT to the pool but not reciving a draw entry\n    *                   Made for NFT projects to build their comunity\n    */\n    function submitNFT(address addressForNFTContract_, uint256 tokenId_, bytes4 interfaceId_)public isPaused {\n        _switchTransferInterface(addressForNFTContract_, tokenId_, interfaceId_, 1, _msgSender());\n\n        TokenData memory newEntry;\n        newEntry.contractOfToken = addressForNFTContract_;\n        newEntry.ownerAddress = 0x0000000000000000000000000000000000000000;\n        newEntry.interfaceId = interfaceId_;\n        newEntry.tokenId = tokenId_;\n\n        _tokensInDraw.push(newEntry);\n        DEPOSIT_COUNT ++;\n\n        emit GiftedNFT(_msgSender(), addressForNFTContract_, tokenId_);\n    }\n\n    /**\n    *           Draw functions\n    */\n    function TriggerDraw()public addressHasDraws activeNFTCount isPaused{\n        _requestRandomNumbers();\n    }\n\n    function _requestRandomNumbers()internal {\n        uint256 requestId_ = COORDINATOR.requestRandomWords(\n            _keyHash, \n            _subscriptionId, \n            _minimumRequestConfirmations, \n            _callbackGaslimit, \n            _amountOfNumbersToRequest\n        );\n        \n        if(requestId_ > 0){\n            address requester_ = _msgSender();\n            DRAW_COUNT ++;\n            _requestIdMapping[requestId_] = requester_;\n            _DrawsInLine ++;\n            _drawTriggers[requestId_] = DRAW_COUNT;\n            userDepositCount_[_requestIdMapping[requestId_]] --;\n            emit DrawInitiated(requester_, DRAW_COUNT);\n        } else {\n            revert FaildToRequestRandomNumbers(requestId_);\n        }\n    }\n\n     function forceFullfillTrigger(uint256 drawId_)public onlyOwner {\n    require(!_completeDraws[drawId_], \"Draw has alredy been completed\");\n    _fullfillFinalDraw(_DrawIdToVRN[drawId_], drawId_);\n   }\n\n    function rawFulfillRandomWords(uint256 requestId, uint256[] memory randomWords) external override {\n    if (msg.sender != _vrfCoordinator) {\n      revert OnlyCoordinatorCanFulfill(msg.sender, _vrfCoordinator);\n    }\n    fulfillRandomWords(requestId, randomWords);\n  }\n    function fulfillRandomWords(\n        uint256 requestId,\n        uint256[] memory randomWords\n      ) internal override {\n        uint256 newNumber = randomWords[0];\n\n        _DrawIdToVRN[_drawTriggers[requestId]] = newNumber;\n        emit RandomNumberReturned(requestId);\n        require(_requestIdMapping[requestId] == address(_requestIdMapping[requestId]), \"Request ID Not found\");\n        require(!_completeDraws[_drawTriggers[requestId]], \"Draw has alredy been completed\");\n        _fullfillFinalDraw(newNumber, requestId);      \n    } \n\n    function _fullfillFinalDraw(uint256 returnedNumber_, uint256 requestId_) internal {\n        uint256 roll = returnedNumber_ % getAvalabuleNFTsInDraw();\n        \n        unchecked {\n            if(roll < 1) roll ++;\n            while(_tokensInDraw[roll].ownerAddress == _requestIdMapping[requestId_] ){\n                if(roll < 2){\n                    roll ++; \n                } else {\n                    roll = roll--;\n                }\n            }\n        }\n\n        TokenData memory drawnToken = _tokensInDraw[roll];\n        _switchTransferInterface(drawnToken.contractOfToken, drawnToken.tokenId, drawnToken.interfaceId, 0, _requestIdMapping[requestId_]);\n        _removeNFTFromDrawArray(roll);\n\n        \n        DEPOSIT_COUNT --;\n        _DrawsInLine --;\n\n        _completeDraws[_drawTriggers[requestId_]] = true;\n        emit DrawComplete(_requestIdMapping[requestId_], drawnToken.contractOfToken, drawnToken.tokenId,  _drawTriggers[requestId_]);        \n    }\n\n    function _removeNFTFromDrawArray(uint index_) internal {\n        if(index_ >= _tokensInDraw.length)return;\n\n        unchecked {\n            uint i = index_;\n            do { \n                _tokensInDraw[i] = _tokensInDraw[i+1];\n                i++;\n            } while (i<_tokensInDraw.length-1);\n            _tokensInDraw.pop();\n        }\n\n    }\n\n\n    /**\n    *           Transfering In & Out\n    */\n\n    /**\n    *\n    *   @notice    -   1 = In && 0 = Out\n    *\n    */\n    function _switchTransferInterface(address addressForNFTContract_, uint256 tokenId_, bytes4 interfaceId_, uint256 inOrOut_, address reciver_) internal {\n        if(interfaceId_ == type(IERC721).interfaceId){\n            if (inOrOut_ > 0){\n                 _transferInERC721(addressForNFTContract_, tokenId_); \n            }else{ \n                _transferOutERC721(addressForNFTContract_, tokenId_, reciver_);\n            }\n            return;\n        }\n        if(interfaceId_ == type(IERC1155).interfaceId){\n            if(inOrOut_ > 0 ) {\n                _transferInERC1155(addressForNFTContract_, tokenId_);\n            }else {\n                _transferOutERC1155(addressForNFTContract_, tokenId_, reciver_);\n            }\n            return;\n        }\n        revert InvaliedContractInterfce(interfaceId_);\n    }\n\n    function _transferInERC721(address addressForNFTContract_, uint256 tokenId_)private {\n        IERC721(addressForNFTContract_).transferFrom(_msgSender(), address(this), tokenId_);\n    }\n\n    function _transferInERC1155(address addressForNFTContract_, uint256 tokenId_)private {\n        bytes memory data;\n        IERC1155(addressForNFTContract_).safeTransferFrom(_msgSender(), address(this), tokenId_, 1, data);\n    }\n\n    function _transferOutERC721(address addressForNFTContract_, uint256 tokenId_, address reciver_)private {\n        IERC721(addressForNFTContract_).transferFrom(address(this), reciver_, tokenId_);\n    }\n\n    function _transferOutERC1155(address addressForNFTContract_, uint256 tokenId_, address reciver_)private {\n        bytes memory data;\n        IERC1155(addressForNFTContract_).safeTransferFrom(address(this), reciver_, tokenId_, 1, data);\n    }\n\n\n    /**\n    *           Supported Interfaces & Token IO\n    */\n     function supportsInterface(bytes4 interfaceId_) public view virtual override(ERC165) returns (bool) {\n        return\n            interfaceId_ == type(IERC1155).interfaceId || interfaceId_ == type(IERC721).interfaceId || super.supportsInterface(interfaceId_);\n    }\n\n    function onERC721Received(\n        address operator_,\n        address from_,\n        uint256 tokenId_,\n        bytes calldata data_\n    ) external pure returns (bytes4){\n        return IERC721Receiver.onERC721Received.selector;\n    }\n    function onERC1155Received(\n        address operator_,\n        address from_,\n        uint256 id_,\n        uint256 value_,\n        bytes calldata data_\n    ) external pure returns (bytes4){\n        return bytes4(keccak256(\"onERC1155Received(address,address,uint256,uint256,bytes)\"));\n    }\n\n/**\n*       ONLY FOR DEVELOPMENT\n*       This will be replaced with a direct submition function to buy link and submit to the VRN service\n*/\n    function removeETH()\n    public\n    payable\n{\n    payable(FEE_PAYABLE_ADDRESS).transfer(address(this).balance);\n}\n\nfunction removeNFTEntryFromDraw(uint256 NFTIndex_, string memory reason_)public onlyOwner {\n    TokenData memory toRemove = _tokensInDraw[NFTIndex_];\n    address returnAddress = toRemove.ownerAddress;\n    if(returnAddress == 0x0000000000000000000000000000000000000000) returnAddress = FEE_PAYABLE_ADDRESS;\n    _switchTransferInterface(toRemove.contractOfToken, toRemove.tokenId, toRemove.interfaceId, 0, returnAddress);\n    _removeNFTFromDrawArray(NFTIndex_);\n    userDepositCount_[toRemove.ownerAddress] --;\n    DEPOSIT_COUNT --;\n    emit ForceRemoveNFT(toRemove.ownerAddress, toRemove.contractOfToken, toRemove.tokenId, reason_);\n}\n    /**\n    *          Setters\n    */\n\nfunction setNewMinNFT(uint256 newMin_)public onlyOwner{\n    MINIMAL_TOKENS_FOR_DRAW = newMin_;\n}\n\n function setCallbackGasLimit(uint32 newGaslimit_)public onlyOwner {\n        _callbackGaslimit = newGaslimit_;\n    }\n    function setDrawPaused()public onlyOwner {\n        _paused ? _paused = false : _paused = true;\n    }\n    function setDrawFee(uint256 amount_)public onlyOwner {\n        DEPOSIT_FEE = amount_;\n    }\n\n    /**\n    *           Getters\n    */\nfunction getAllTokensInDraw()public view returns(TokenData[] memory){\n    return _tokensInDraw;\n}\n\nfunction getNFTsDepositedCount()public view returns(uint256){\n    return DEPOSIT_COUNT;\n}\n\nfunction getDrawFee()public view returns(uint256){\n    return DEPOSIT_FEE;\n}\n\nfunction getAvalabuleNFTsInDraw()public view returns(uint256){\n    return getNFTsDepositedCount() - _DrawsInLine;\n}\n\nfunction getTotalDrawsHappened()public view returns(uint256){\n    return DRAW_COUNT;\n}\nfunction getAddressRemainingPlays(address playersAddress_)public view returns(uint256){\n    return userDepositCount_[playersAddress_];\n}\nfunction getMaxEntrysPerWallet()public view returns(uint256){\n    return MAX_CONCURRENT_ENTRYS_PER_WALLET;\n}\n\nfunction getPendingDrawCount()public view returns(uint256){\n    return _DrawsInLine;\n}\n\nfunction getCallbackGasLimit()public view returns(uint256){\n    return _callbackGaslimit;\n}\n\nfunction getPausedStatus()public view returns(bool) {\n    return _paused;\n}\n}\n",
  "sourcePath": "/Users/tuck/Documents/Nylon Blocks/Projects/degenXchange/degenXchange-onChain/contracts/degenExchangeRegistry.sol",
  "compiler": {
    "name": "solc",
    "version": "0.8.11+commit.d7f03943.Emscripten.clang"
  },
  "schemaVersion": "3.4.9",
  "updatedAt": "2022-09-02T11:16:19.768Z",
  "networkType": "ethereum",
  "devdoc": {
    "details": "-   IERC721 interfaceId - 0x80ac58cd-   IERC1155 interfaceId - ",
    "kind": "dev",
    "methods": {
      "owner()": {
        "details": "Returns the address of the current owner."
      },
      "renounceOwnership()": {
        "details": "Leaves the contract without owner. It will not be possible to call `onlyOwner` functions anymore. Can only be called by the current owner. NOTE: Renouncing ownership will leave the contract without an owner, thereby removing any functionality that is only available to the owner."
      },
      "transferOwnership(address)": {
        "details": "Transfers ownership of the contract to a new account (`newOwner`). Can only be called by the current owner."
      }
    },
    "version": 1
  },
  "userdoc": {
    "kind": "user",
    "methods": {
      "EnterNFTDraw(address,uint256,bytes4)": {
        "notice": "Deposit functions"
      },
      "TriggerDraw()": {
        "notice": "Draw functions"
      },
      "getAllTokensInDraw()": {
        "notice": "Getters"
      },
      "removeETH()": {
        "notice": "ONLY FOR DEVELOPMENT       This will be replaced with a direct submition function to buy link and submit to the VRN service"
      },
      "setNewMinNFT(uint256)": {
        "notice": "Setters"
      },
      "submitNFT(address,uint256,bytes4)": {
        "notice": "-   THIS FUNCTION IS ONE WAY. YOU DO NOT GET A DRAW FOR SUBMITTING                   Used for entering an NFT to the pool but not reciving a draw entry                   Made for NFT projects to build their comunity"
      },
      "supportsInterface(bytes4)": {
        "notice": "Supported Interfaces & Token IO"
      }
    },
    "version": 1
  }
}